:100000000C942A000C942A110C945D110C949011FC
:100010000C941C0C0C94E90B0C9447000C94B60B3C
:100020000C9447000C94830B0C94500B0C941D0BF8
:100030000C9447000C9447000C9447000C94470024
:100040000C9447000C9447000C9447000C94470014
:100050000C94470011241FBECFE5D8E0DEBFCDBF12
:1000600011E0A0E6B0E0E6E2F4E302C005900D92F4
:10007000A639B107D9F711E0A6E9B1E001C01D9298
:10008000A73AB107E1F70E9445150C94111A0C9498
:100090000000EF92FF920F931F937B018C0120E0F1
:1000A00030E040E05FE40E94F50388238CF0C80153
:1000B000B70120E030E040E05FE40E94C1010E940F
:1000C000B3049B01AC01205030404040504806C072
:1000D000C801B7010E94B3049B01AC01B901CA0178
:1000E0001F910F91FF90EF900895A0E0B0E0EBE733
:1000F000F0E00C94DA19DC012B01FA019C919230AA
:1001000008F439C1EB018881823008F433C194309E
:1001100069F4843009F02FC111969C91119789815F
:10012000981709F428C1A0E6B0E025C1843009F48D
:1001300021C18230A9F4923009F01DC19A01AD01AC
:1001400088E0EA010990AE01E90109929E0181501F
:10015000C1F7E201898111969C918923818308C1AD
:10016000923009F407C112962D903C901397EB0141
:100170008A819B811496AD90BD90CD90DC901797AD
:10018000EC80FD800E811F819101281B390BB90184
:1001900037FF04C066277727621B730B6032710537
:1001A0000CF061C0121613066CF537014801062EDB
:1001B00004C096948794779467940A94D2F721E0C8
:1001C00030E040E050E004C0220F331F441F551FB1
:1001D0006A95D2F721503040404050402E213F21B7
:1001E00040235123211531054105510521F021E01E
:1001F00030E040E050E079018A01E628F72808293C
:1002000019293CC0232BD1F1260E371E350146019A
:10021000062E04C096948794779467940A94D2F734
:1002200021E030E040E050E004C0220F331F441FC3
:10023000551F6A95D2F721503040404050402A2146
:100240003B214C215D21211531054105510521F04E
:1002500021E030E040E050E059016A01A628B728CB
:10026000C828D9280BC0821593052CF01C01AA249C
:10027000BB24650103C0EE24FF24870111969C91E5
:10028000D20111968C91981709F445C0992339F041
:10029000A80197012A193B094C095D0906C0A6016E
:1002A00095012E193F09400B510B57FD08C01182D3
:1002B0003382228224833583468357831DC081E0A5
:1002C00081833382228288279927DC01821B930B4A
:1002D000A40BB50B84839583A683B7830DC0220F2F
:1002E000331F441F551F24833583468357838281E0
:1002F000938101979383828324813581468157813D
:10030000DA01C9010197A109B1098F5F9F4FAF4F72
:10031000BF4328F30BC0918333822282EA0CFB1C7B
:100320000C1D1D1DE482F5820683178383E0808304
:10033000248135814681578157FF1AC0C901AA27F8
:1003400097FDA095BA2F81709070A070B0705695EF
:10035000479537952795822B932BA42BB52B848318
:100360009583A683B7838281938101969383828349
:10037000DF0101C0D201CD01CDB7DEB7E2E10C94BF
:10038000F619A0E2B0E0E7ECF1E00C94E61969831D
:100390007A838B839C832D833E834F835887E9E048
:1003A000EE2EF12CEC0EFD1ECE010196B7010E943F
:1003B000A4068E010F5E1F4FCE010596B8010E9464
:1003C000A4068A8991E089278A8BC701B801AE010A
:1003D000475E5F4F0E9475000E94CF05A096E6E041
:1003E0000C94021AA0E2B0E0E8EFF1E00C94E619F8
:1003F00069837A838B839C832D833E834F835887C5
:10040000F9E0EF2EF12CEC0EFD1ECE010196B701A6
:100410000E94A4068E010F5E1F4FCE010596B80103
:100420000E94A406C701B801AE01475E5F4F0E945B
:1004300075000E94CF05A096E6E00C94021AA0E297
:10044000B0E0E5E2F2E00C94DA1969837A838B83F9
:100450009C832D833E834F835887CE010196BE0136
:10046000675F7F4F0E94A406CE010596BE016F5EB6
:100470007F4F0E94A4069985923088F08989823046
:10048000C8F0943019F4823051F404C0843029F457
:10049000923081F480E690E0C6C0923049F420E0CA
:1004A0009A858A89981321E02A87CE010996BBC0D4
:1004B000823049F420E09A858A89981321E02A8BBA
:1004C000CE014196B0C02D843E844F8458886D88FB
:1004D0007E888F88988CEE24FF248701AA24BB2471
:1004E000650140E050E060E070E0E0E0F0E0C10174
:1004F00081709070892BE9F0E60CF71C081D191D1E
:100500009A01AB012A0D3B1D4C1D5D1D80E090E062
:10051000A0E0B0E0E614F7040805190520F481E036
:1005200090E0A0E0B0E0BA01A901480F591F6A1F8E
:100530007B1FAA0CBB1CCC1CDD1C97FE08C081E0F5
:1005400090E0A0E0B0E0A82AB92ACA2ADB2A3196B6
:10055000E032F10549F0660C771C881C991C569412
:10056000479437942794C3CFFA85EA892B893C892D
:100570008B859C85280F391F2E5F3F4F17C0CA01FE
:1005800081709070892B61F016950795F794E79428
:1005900080E090E0A0E0B0E8E82AF92A0A2B1B2BC3
:1005A00076956795579547952F5F3F4F77FDE7CF36
:1005B0000CC0440F551F661F771F17FD4160EE0CDE
:1005C000FF1C001F111F21503040403090E05907A0
:1005D00090E0690790E4790760F32B8F3C8FDB0193
:1005E000CA018F779070A070B07080349105A1051A
:1005F000B10561F447FD0AC0E114F10401051105DC
:1006000029F0405C5F4F6F4F7F4F40781A8EFE1786
:1006100011F081E08A8F4D8F5E8F6F8F78A383E01A
:10062000898FCE0149960E94CF05A096E2E10C94F5
:10063000F619A8E1B0E0EFE1F3E00C94E219698368
:100640007A838B839C832D833E834F835887B9E0C5
:10065000EB2EF12CEC0EFD1ECE010196B7010E948F
:10066000A4068E010F5E1F4FCE010596B8010E94B1
:10067000A4062985223008F47EC03989323010F46E
:10068000B8017CC08A859A8989278A87243011F02D
:10069000223031F4231709F06EC060E670E06EC0BE
:1006A000343039F41D861E861F86188A1C861B86E8
:1006B00004C0323021F484E08987B7015FC02B8504
:1006C0003C858B899C89281B390B3C872B87ED84C3
:1006D000FE840F851889AD88BE88CF88D88CEA142F
:1006E000FB040C051D0540F4EE0CFF1C001F111F40
:1006F000215030403C872B8720E030E040E050E044
:1007000080E090E0A0E0B0E460E070E0EA14FB0478
:100710000C051D0540F0282B392B4A2B5B2BEA18C2
:10072000FB080C091D09B695A79597958795EE0CC2
:10073000FF1C001F111F6F5F7F4F6F31710531F775
:10074000DA01C9018F779070A070B0708034910584
:10075000A105B10561F427FD0AC0E114F10401050A
:10076000110529F0205C3F4F4F4F5F4F20782D87B8
:100770003E874F87588BBE01675F7F4FCB010E943A
:10078000CF056896EAE00C94FE19A8E1B0E0EBEC26
:10079000F3E00C94E61969837A838B839C832D8321
:1007A0003E834F83588789E0E82EF12CEC0EFD1E26
:1007B000CE010196B7010E94A4068E010F5E1F4F65
:1007C000CE010596B8010E94A4068985823040F0CA
:1007D0008989823028F0C701B8010E941C0701C036
:1007E0008FEF6896E6E00C94021AA8E1B0E0EBEF18
:1007F000F3E00C94E61969837A838B839C832D83C1
:100800003E834F83588789E0E82EF12CEC0EFD1EC5
:10081000CE010196B7010E94A4068E010F5E1F4F04
:10082000CE010596B8010E94A4068985823040F069
:100830008989823028F0C701B8010E941C0701C0D5
:100840008FEF6896E6E00C94021AA8E1B0E0EBE2C4
:10085000F4E00C94E61969837A838B839C832D835F
:100860003E834F83588789E0E82EF12CEC0EFD1E65
:10087000CE010196B7010E94A4068E010F5E1F4FA4
:10088000CE010596B8010E94A4068985823040F009
:100890008989823028F0C701B8010E941C0701C075
:1008A00081E06896E6E00C94021AA8E0B0E0EBE57F
:1008B000F4E00C94E3199B01AC0183E08983DA0135
:1008C000C9018827B7FD83959927AA27BB27B82E8A
:1008D000211531054105510519F482E089833AC09B
:1008E0008823A9F0203080E0380780E0480780E8BE
:1008F000580729F460E070E080E09FEC30C0EE24FF
:10090000FF248701E21AF30A040B150B02C07901D8
:100910008A018EE1C82ED12CDC82CB82ED82FE8250
:100920000F831887C801B7010E9480050197181628
:10093000190684F4082E04C0EE0CFF1C001F111FC2
:100940000A94D2F7ED82FE820F831887C81AD90A5B
:10095000DC82CB82BA82CE0101960E94CF05289616
:10096000E9E00C94FF19ACE0B0E0E9EBF4E00C94A2
:10097000EA1969837A838B839C83CE010196BE0139
:100980006B5F7F4F0E94A4068D81823061F18230BF
:1009900050F1843021F48E81882351F12EC02F81B3
:1009A000388537FD20C06E812F3131051CF066235C
:1009B000F9F023C08EE190E0821B930B29853A85E4
:1009C0004B855C8504C056954795379527958A9544
:1009D000D2F76623B1F050954095309521953F4F61
:1009E0004F4F5F4F0EC020E030E040E050E009C0C4
:1009F0002FEF3FEF4FEF5FE704C020E030E040E033
:100A000050E8B901CA012C96E2E00C94061AA8E05D
:100A1000B0E0EDE0F5E00C94E2197B018C0161158A
:100A200071058105910519F482E0898360C083E036
:100A300089838EE1C82ED12CDC82CB82ED82FE82AE
:100A40000F831887C801B7010E948005FC01319708
:100A5000F7FF3BC0222733272E1B3F0B57016801AE
:100A6000022E04C0D694C794B794A7940A94D2F7E0
:100A700040E050E060E070E081E090E0A0E0B0E0B5
:100A800004C0880F991FAA1FBB1F2A95D2F7019790
:100A9000A109B1098E219F21A023B1230097A105AF
:100AA000B10521F041E050E060E070E04A295B29A7
:100AB0006C297D294D835E836F8378878EE190E07A
:100AC0008E1B9F0B9C838B8312C0309781F00E2E60
:100AD00004C0EE0CFF1C001F111F0A94D2F7ED8218
:100AE000FE820F831887CE1ADF0ADC82CB821A823D
:100AF000CE0101960E94CF052896EAE00C94FE19DB
:100B0000EF92FF920F931F937B018C0180E0E81618
:100B100080E0F80681E0080780E0180788F48FEF8E
:100B2000E816F1040105110531F028F088E090E0A5
:100B3000A0E0B0E017C080E090E0A0E0B0E012C01C
:100B400080E0E81680E0F80680E0080781E01807FA
:100B500028F088E190E0A0E0B0E004C080E190E0FF
:100B6000A0E0B0E020E230E040E050E0281B390B8C
:100B70004A0B5B0B04C016950795F794E7948A958A
:100B8000D2F7F701E859FF4F8081281B310941094D
:100B90005109C9011F910F91FF90EF900895DF92C5
:100BA000EF92FF920F931F93FC01E480F580068182
:100BB0001781D1808081823048F480E090E0A0E10C
:100BC000B0E0E82AF92A0A2B1B2BA5C0843009F4CF
:100BD0009FC0823021F4EE24FF24870105C0E11478
:100BE000F1040105110519F4E0E0F0E096C062811E
:100BF00073819FEF623879070CF05BC022E83FEF0A
:100C0000261B370B2A3131052CF020E030E040E084
:100C100050E02AC0B801A701022E04C0769567955E
:100C2000579547950A94D2F781E090E0A0E0B0E0B4
:100C300004C0880F991FAA1FBB1F2A95D2F70197DE
:100C4000A109B1098E219F21A023B1230097A105FD
:100C5000B10521F081E090E0A0E0B0E09A01AB01A5
:100C6000282B392B4A2B5B2BDA01C9018F77907027
:100C7000A070B07080349105A105B10539F427FF4B
:100C800009C0205C3F4F4F4F5F4F04C0215C3F4F76
:100C90004F4F5F4FE0E0F0E02030A0E03A07A0E0E7
:100CA0004A07A0E45A0710F0E1E0F0E079018A0178
:100CB00027C06038710564F5FB01E158FF4FD8018A
:100CC000C7018F779070A070B07080349105A10536
:100CD000B10539F4E7FE0DC080E490E0A0E0B0E09B
:100CE00004C08FE390E0A0E0B0E0E80EF91E0A1F18
:100CF0001B1F17FF05C016950795F794E7943196CB
:100D000087E016950795F794E7948A95D1F705C083
:100D1000EE24FF248701EFEFF0E06E2F6795662742
:100D20006795902F9F77D794DD24D7948E2F869543
:100D3000492F462B582F5D29B701CA011F910F91EA
:100D4000FF90EF90DF900895FC01DB01408151811D
:100D50002281622F6F7770E0221F2227221F93814A
:100D6000892F880F822B282F30E0991F9927991FF0
:100D700011969C93119721153105A9F5411551053F
:100D80006105710511F482E037C082E89FEF139688
:100D90009C938E9312979A01AB0167E0220F331F49
:100DA000441F551F6A95D1F783E08C930DC0220F25
:100DB000331F441F551F12968D919C9113970197D5
:100DC00013969C938E931297203080E0380780E032
:100DD000480780E4580758F314962D933D934D939C
:100DE0005C93179708952F3F310579F4411551050C
:100DF0006105710519F484E08C93089564FF03C0C4
:100E000081E08C9312C01C9210C02F573040139673
:100E10003C932E93129783E08C9387E0440F551FE9
:100E2000661F771F8A95D1F7706414964D935D9372
:100E30006D937C93179708951F93DC01FB019C91A0
:100E4000923008F447C08081823008F443C0943067
:100E500051F411961C91843099F58181682F70E0CE
:100E6000611B71093FC0843021F0923031F482302F
:100E7000B9F18181882389F12DC011961C911197B8
:100E80008230F1F081811817D9F412962D913C919E
:100E90001397828193818217930794F0281739075B
:100EA000BCF014968D919D910D90BC91A02D248144
:100EB000358146815781281739074A075B0718F49F
:100EC000112341F00AC082179307A407B50740F425
:100ED000112319F061E070E005C06FEF7FEF02C0F1
:100EE00060E070E0CB011F910895DF93CF9300D0B5
:100EF000CDB7DEB79A838983A7E2B0E0E7E2F0E0FE
:100F00008081282F2F73E981FA818081882F90E0DA
:100F10000024969587950794969587950794982F22
:100F2000802D822B8C93A6E2B0E0E6E2F0E0808197
:100F300080688C93A6E2B0E0E6E2F0E08081982F32
:100F4000987FE981FA818181892B8C930F900F9092
:100F5000CF91DF910895DF93CF930F92CDB7DEB796
:100F60008983A7E2B0E0E7E2F0E08081807E8C93A5
:100F7000A7E2B0E0E7E2F0E090818981892B8C93D1
:100F8000A6E2B0E0E6E2F0E0808180648C93E6E2E5
:100F9000F0E08081882F90E0807190700097B9F325
:100FA000A6E2B0E0E6E2F0E0808180618C93E4E2CA
:100FB000F0E0808191810F90CF91DF910895DF93D0
:100FC000CF9300D000D00F92CDB7DEB789836A836C
:100FD0004B838981843008F0D5C08A81883008F03D
:100FE000D1C08981282F30E03D832C838C819D8165
:100FF0008130910509F443C02C813D8122303105B7
:101000002CF48C819D81009771F0BCC02C813D81B6
:101010002230310509F45FC08C819D8183309105B8
:1010200009F485C0AFC08B818823A9F4AAE3B0E09E
:10103000EAE3F0E08081482F8A81282F30E081E0C8
:1010400090E0022E02C0880F991F0A94E2F7809563
:1010500084238C9397C0AAE3B0E0EAE3F0E08081B8
:10106000482F8A81282F30E081E090E0022E02C0D4
:10107000880F991F0A94E2F7842B8C9383C08B818D
:101080008823A9F4A7E3B0E0E7E3F0E08081482FEC
:101090008A81282F30E081E090E0022E02C0880F84
:1010A000991F0A94E2F7809584238C936BC0A7E381
:1010B000B0E0E7E3F0E08081482F8A81282F30E01C
:1010C00081E090E0022E02C0880F991F0A94E2F797
:1010D000842B8C9357C08B818823A9F4A4E3B0E0C0
:1010E000E4E3F0E08081482F8A81282F30E081E01E
:1010F00090E0022E02C0880F991F0A94E2F78095B3
:1011000084238C933FC0A4E3B0E0E4E3F0E080816B
:10111000482F8A81282F30E081E090E0022E02C023
:10112000880F991F0A94E2F7842B8C932BC08B8134
:101130008823A9F4A1E3B0E0E1E3F0E08081482F47
:101140008A81282F30E081E090E0022E02C0880FD3
:10115000991F0A94E2F7809584238C9313C0A1E32E
:10116000B0E0E1E3F0E08081482F8A81282F30E071
:1011700081E090E0022E02C0880F991F0A94E2F7E6
:10118000842B8C930F900F900F900F900F90CF9116
:10119000DF910895DF93CF9300D000D00F92CDB7A9
:1011A000DEB789836A834B838981843008F0D5C098
:1011B0008A81883008F0D1C08981282F30E03D83B2
:1011C0002C838C819D818130910509F443C02C8151
:1011D0003D81223031052CF48C819D81009771F086
:1011E000BCC02C813D812230310509F45FC08C8167
:1011F0009D818330910509F485C0AFC08B81882320
:10120000A9F4ABE3B0E0EBE3F0E08081482F8A8102
:10121000282F30E081E090E0022E02C0880F991F55
:101220000A94E2F7809584238C9397C0ABE3B0E0F7
:10123000EBE3F0E08081482F8A81282F30E081E0C5
:1012400090E0022E02C0880F991F0A94E2F7842BC7
:101250008C9383C08B818823A9F4A8E3B0E0E8E3F2
:10126000F0E08081482F8A81282F30E081E090E0F3
:10127000022E02C0880F991F0A94E2F780958423FA
:101280008C936BC0A8E3B0E0E8E3F0E08081482FE6
:101290008A81282F30E081E090E0022E02C0880F82
:1012A000991F0A94E2F7842B8C9357C08B81882373
:1012B000A9F4A5E3B0E0E5E3F0E08081482F8A815E
:1012C000282F30E081E090E0022E02C0880F991FA5
:1012D0000A94E2F7809584238C933FC0A5E3B0E0A5
:1012E000E5E3F0E08081482F8A81282F30E081E01B
:1012F00090E0022E02C0880F991F0A94E2F7842B17
:101300008C932BC08B818823A9F4A2E3B0E0E2E3A5
:10131000F0E08081482F8A81282F30E081E090E042
:10132000022E02C0880F991F0A94E2F78095842349
:101330008C9313C0A2E3B0E0E2E3F0E08081482F99
:101340008A81282F30E081E090E0022E02C0880FD1
:10135000991F0A94E2F7842B8C930F900F900F90B3
:101360000F900F90CF91DF910895DF93CF9300D02E
:1013700000D00F92CDB7DEB78A836B8319828A8142
:10138000843008F084C08B81883008F080C08A8166
:10139000282F30E03D832C834C815D814130510505
:1013A00079F18C819D818230910534F42C813D81CD
:1013B0002115310569F06BC04C815D8142305105CA
:1013C000B9F18C819D818330910509F449C05FC0DA
:1013D000E9E3F0E08081282F30E08B81882F90E0D6
:1013E000A90102C0559547958A95E2F7CA01817017
:1013F0009070882319F081E0898349C0198247C021
:10140000E6E3F0E08081282F30E08B81882F90E0A8
:10141000A90102C0559547958A95E2F7CA018170E6
:101420009070882319F081E0898331C019822FC020
:10143000E3E3F0E08081282F30E08B81882F90E07B
:10144000A90102C0559547958A95E2F7CA018170B6
:101450009070882319F081E0898319C0198217C020
:10146000E0E3F0E08081282F30E08B81882F90E04E
:10147000A90102C0559547958A95E2F7CA01817086
:101480009070882319F081E0898301C019828981D5
:101490000F900F900F900F900F90CF91DF910895C4
:1014A000DF93CF9300D000D0CDB7DEB789836A83B6
:1014B0008981843090F58981282F30E03C832B830B
:1014C0008B819C8181309105D1F02B813C81223030
:1014D00031052CF48B819C81009761F01EC02B811B
:1014E0003C812230310581F08B819C8183309105D4
:1014F00081F013C0EAE3F0E08A8180830EC0E7E365
:10150000F0E08A81808309C0E4E3F0E08A8180838F
:1015100004C0E1E3F0E08A8180830F900F900F9088
:101520000F90CF91DF910895DF93CF9300D000D03B
:10153000CDB7DEB789836A838981853090F589814B
:10154000282F30E03C832B838B819C818130910557
:10155000D1F02B813C81223031052CF48B819C8190
:10156000009761F01EC02B813C812230310581F053
:101570008B819C818330910581F013C0EBE3F0E017
:101580008A8180830EC0E8E3F0E08A81808309C00D
:10159000E5E3F0E08A81808304C0E2E3F0E08A8141
:1015A00080830F900F900F900F90CF91DF9108954F
:1015B000DF93CF9300D000D0CDB7DEB78A831982F6
:1015C0008A81843090F58A81282F30E03C832B83F8
:1015D0008B819C8181309105D1F02B813C8122301F
:1015E00031052CF48B819C81009761F01EC02B810A
:1015F0003C812230310581F08B819C8183309105C3
:1016000081F013C0E9E3F0E0808189830EC0E6E356
:10161000F0E08081898309C0E3E3F0E08081898381
:1016200004C0E0E3F0E08081898389810F900F900E
:101630000F900F90CF91DF9108951F920F920FB6E8
:101640000F9211242F933F934F935F936F937F9348
:101650008F939F93AF93BF93EF93FF93DF93CF93BA
:10166000CDB7DEB78091960190919701009729F050
:10167000E0919601F09197010995CF91DF91FF914B
:10168000EF91BF91AF919F918F917F916F915F91FA
:101690004F913F912F910F900FBE0F901F90189573
:1016A0001F920F920FB60F9211242F933F934F93D7
:1016B0005F936F937F938F939F93AF93BF93EF93BA
:1016C000FF93DF93CF93CDB7DEB7809196019091D2
:1016D0009701009729F0E0919601F0919701099503
:1016E000CF91DF91FF91EF91BF91AF919F918F913A
:1016F0007F916F915F914F913F912F910F900FBE0E
:101700000F901F9018951F920F920FB60F921124F1
:101710002F933F934F935F936F937F938F939F93F9
:10172000AF93BF93EF93FF93DF93CF93CDB7DEB724
:101730008091980190919901009729F0E09198018A
:10174000F09199010995CF91DF91FF91EF91BF91B0
:10175000AF919F918F917F916F915F914F913F9149
:101760002F910F900FBE0F901F9018951F920F9200
:101770000FB60F9211242F933F934F935F936F9364
:101780007F938F939F93AF93BF93EF93FF93DF93D9
:10179000CF93CDB7DEB780919801909199010097D2
:1017A00029F0E0919801F09199010995CF91DF918D
:1017B000FF91EF91BF91AF919F918F917F916F9129
:1017C0005F914F913F912F910F900FBE0F901F90FF
:1017D00018951F920F920FB60F9211242F933F93DB
:1017E0004F935F936F937F938F939F93AF93BF9329
:1017F000EF93FF93DF93CF93CDB7DEB780919A013C
:1018000090919B01009729F0E0919A01F0919B0142
:101810000995CF91DF91FF91EF91BF91AF919F918A
:101820008F917F916F915F914F913F912F910F9089
:101830000FBE0F901F9018951F920F920FB60F9228
:1018400011242F933F934F935F936F937F938F93C5
:101850009F93AF93BF93EF93FF93DF93CF93CDB756
:10186000DEB780919A0190919B01009729F0E09159
:101870009A01F0919B010995CF91DF91FF91EF9132
:10188000BF91AF919F918F917F916F915F914F9198
:101890003F912F910F900FBE0F901F901895DF93DF
:1018A000CF9300D0CDB7DEB79A838983A3E5B0E0AC
:1018B000E3E5F0E08081282F2F77E981FA818181AB
:1018C000882F90E09695982F882797958795822B5B
:1018D0008C93A3E5B0E0E3E5F0E08081282F2F7B37
:1018E000E981FA818281882F90E09695982F882748
:1018F0009795879595958795822B8C93A3E5B0E076
:10190000E3E5F0E08081282F277FE981FA81828159
:101910008695882F90E0880F991F880F991F880F50
:10192000991F822B8C93A3E5B0E0E3E5F0E0808182
:10193000282F2F7CE981FA818381882F90E082957E
:101940009295907F9827807F9827822B8C93A3E590
:10195000B0E0E3E5F0E08081982F987FE981FA819B
:101960008081892B8C93A2E5B0E0E981FA818681A0
:101970008C93ACE5B0E0E981FA8187818C93A9E58D
:10198000B0E0E9E5F0E08081282F2D7FE981FA8140
:101990008481882F90E0880F991F822B8C93A9E572
:1019A000B0E0E9E5F0E08081982F9E7FE981FA813F
:1019B0008581892B8C930F900F90CF91DF910895A3
:1019C000DF93CF93CDB7DEB7E3E5F0E01082A9E572
:1019D000B0E0E9E5F0E080818C7F8C93CF91DF91DE
:1019E0000895DF93CF9300D0CDB7DEB79A83898374
:1019F00089819A8190939701809396010F900F901F
:101A0000CF91DF910895DF93CF9300D0CDB7DEB7AC
:101A10009A838983E2E5F0E0108281E063E041E0AF
:101A20000E94DF07E3E5F0E088E68083A3E5B0E00D
:101A3000E3E5F0E09081E981FA818081892B8C9344
:101A40000F900F90CF91DF910895DF93CF9300D047
:101A5000CDB7DEB79A838983E2E5F0E01082ACE58A
:101A6000B0E0E981FA8180818C930F900F90CF9143
:101A7000DF910895DF93CF9300D0CDB7DEB79A837F
:101A80008983AFE4B0E0EFE4F0E08081282F2F738A
:101A9000E981FA818081882F90E0002496958795CE
:101AA0000794969587950794982F802D822B8C9379
:101AB000AFE4B0E0EFE4F0E08081282F2F7CE981F3
:101AC000FA818181882F90E082959295907F982766
:101AD000807F9827822B8C93AFE4B0E0EFE4F0E0B6
:101AE0008081282F277FE981FA818281882F90E0E9
:101AF000880F991F880F991F880F991F822B8C932D
:101B0000AFE4B0E0EFE4F0E08081282F2B7FE981A3
:101B1000FA818381882F90E0880F991F880F991F81
:101B2000822B8C93AFE4B0E0EFE4F0E08081282FCB
:101B30002C7FE981FA818781882F90E00024969597
:101B400087950794969587950794982F802D082E52
:101B5000892F000C881F990B000C881F991F822B5E
:101B60008C93AEE4B0E0EEE4F0E08081282F277E95
:101B7000E981FA81878186958695882F90E0880F84
:101B8000991F880F991F880F991F822B8C93AEE4A1
:101B9000B0E0EEE4F0E08081282F2F77E981FA8130
:101BA0008581882F90E09695982F8827979587951F
:101BB000822B8C93AEE4B0E0EEE4F0E08081282F3D
:101BC0002F7BE981FA818481882F90E0002496950B
:101BD00087950794969587950794982F802D822B4B
:101BE0008C93AEE4B0E0EEE4F0E08081982F987F33
:101BF000E981FA818681892B8C93A9E5B0E0E9E53A
:101C0000F0E08081282F2F7EE981FA818085882F5E
:101C100090E082959295907F9827807F9827822BDD
:101C20008C93A9E5B0E0E9E5F0E08081282F277FDB
:101C3000E981FA818185882F90E0880F991F880FAC
:101C4000991F880F991F822B8C93A9E5B0E0E9E5D5
:101C5000F0E08081282F2B7FE981FA818285882F0F
:101C600090E0880F991F880F991F822B8C93ACE40A
:101C7000B0E0E981FA818385948511969C938E93D7
:101C8000AAE4B0E0E981FA818585968511969C9356
:101C90008E93A8E4B0E0E981FA8187859089119656
:101CA0009C938E930F900F90CF91DF910895DF93C7
:101CB000CF9300D0CDB7DEB79A83898389819A818B
:101CC00090939901809398010F900F90CF91DF919D
:101CD0000895DF93CF93CDB7DEB7EFE4F0E0108245
:101CE000EEE4F0E01082A9E5B0E0E9E5F0E0808103
:101CF000837C8C93CF91DF910895DF93CF9300D0B5
:101D0000CDB7DEB79A838983A5E4B0E0E5E4F0E0DF
:101D10008081282F2F77E981FA818181882F90E0B7
:101D20009695982F882797958795822B8C93A5E475
:101D3000B0E0E5E4F0E08081282F2F7BE981FA8193
:101D40008281882F90E09695982F88279795879580
:101D500095958795822B8C93A5E4B0E0E5E4F0E0BF
:101D60008081282F277FE981FA8182818695882FBB
:101D700090E0880F991F880F991F880F991F822B59
:101D80008C93A5E4B0E0E5E4F0E08081282F2F7C7F
:101D9000E981FA818381882F90E082959295907FE6
:101DA0009827807F9827822B8C93A5E4B0E0E5E408
:101DB000F0E08081982F987FE981FA818081892BDA
:101DC0008C93A2E5B0E0E981FA8186818C93A3E44B
:101DD000B0E0E981FA8187818C93A9E5B0E0E9E57B
:101DE000F0E08081282F2F77E981FA818481882F84
:101DF00090E09695982F882797958795822B8C93BE
:101E0000A9E5B0E0E9E5F0E08081982F9F7BE981CA
:101E1000FA818581892B8C930F900F90CF91DF9160
:101E20000895DF93CF93CDB7DEB7E5E4F0E01082FD
:101E3000A9E5B0E0E9E5F0E080818F738C93CF9164
:101E4000DF910895DF93CF9300D0CDB7DEB79A83AB
:101E5000898389819A8190939B0180939A010F9045
:101E60000F90CF91DF910895EF92FF920F931F9300
:101E7000DF93CF9300D000D0CDB7DEB79C838B83A8
:101E80001A821982ABE2B0E0EBE2F0E08081282F09
:101E90002D7FEB81FC818081882F90E0880F991F36
:101EA000822B8C93AAE2B0E0EAE2F0E08081282F56
:101EB0002F77EB81FC818181882F90E09695982F78
:101EC000882797958795822B8C93AAE2B0E0EAE267
:101ED000F0E08081282F2F77EB81FC818281882F91
:101EE00090E000249695879507949695879507949A
:101EF000982F802D822B8C93AAE2B0E0EAE2F0E0EA
:101F00008081282F2F7DEB81FC818381882F90E0B9
:101F1000880F991F82959295907F9827807F9827A8
:101F2000822B8C93AAE2B0E0EAE2F0E08081282FD5
:101F30002F7EEB81FC818481882F90E082959295A1
:101F4000907F9827807F9827822B8C93AAE2B0E01D
:101F5000EAE2F0E08081282F277FEB81FC818581F8
:101F6000882F90E0880F991F880F991F880F991F5D
:101F7000822B8C93AAE2B0E0EAE2F0E08081282F85
:101F80002B7FEB81FC81868186958695882F90E05A
:101F9000880F991F880F991F822B8C93A0E4B0E0C3
:101FA000E0E4F0E08081282F297FEB81FC818681AD
:101FB000882F90E0002496958795079496958795AD
:101FC0000794982F802D959587959595879595954C
:101FD00087959595879595958795822B8C93A0E409
:101FE000B0E0E0E4F0E08081282F2F77EB81FC81E6
:101FF0008781882F90E09695982F882797958795C9
:10200000822B8C93A0E4B0E0E0E4F0E08081282F04
:102010002F7BEB81FC818085882F90E000249695B2
:1020200087950794969587950794982F802D822BF6
:102030008C93A0E4B0E0E0E4F0E08081282F2F7CD6
:10204000EB81FC818185882F90E082959295907F2D
:102050009827807F9827822B8C93A0E4B0E0E0E45F
:10206000F0E08081282F277FEB81FC818285882FFB
:1020700090E0880F991F880F991F880F991F822B56
:102080008C93A0E4B0E0E0E4F0E08081982F9E7FA4
:10209000EB81FC818385892B8C93EB81FC81808192
:1020A000882F90E00196AA2797FDA095BA2F20E0EF
:1020B00032E14AE750E0BC01CD010E9499197B0151
:1020C0008C01EB81FC8184859585A685B785880F79
:1020D000991FAA1FBB1F880F991FAA1FBB1F880F1C
:1020E000991FAA1FBB1F880F991FAA1FBB1F9C0106
:1020F000AD01C801B7010E94B819DA01C901019701
:102100009A838983E0E4F0E089819A81892F992775
:102110008083E9E2F0E0898180830F900F900F9037
:102120000F90CF91DF911F910F91FF90EF90089545
:10213000DF93CF930F92CDB7DEB78983EBE2F0E068
:102140008081882F90E0807290700097B9F3ECE264
:10215000F0E0898180830F90CF91DF910895DF9324
:10216000CF93CDB7DEB7EBE2F0E080818823DCF7D8
:10217000ECE2F0E08081CF91DF910895DF93CF937F
:1021800000D00F92CDB7DEB79B838A8319820EC031
:102190008981282F30E08A819B81FC01E20FF31FA7
:1021A00080810E94981089818F5F89838981282F7F
:1021B00030E08A819B81FC01E20FF31F808188233C
:1021C00039F70F900F900F90CF91DF9108950F93F3
:1021D0001F93DF93CF9300D00F92CDB7DEB79B83D1
:1021E0008A8319828981282F30E08A819B818C0122
:1021F000020F131F0E94AF10F80180830FC0898166
:102200008F5F89838981282F30E08A819B818C01AF
:10221000020F131F0E94AF10F80180838981282FBD
:1022200030E08A819B81FC01E20FF31F80818D33B6
:1022300031F78981282F30E08A819B81FC01E20FF0
:10224000F31F10820F900F900F90CF91DF911F918D
:102250000F9108951F920F920FB60F9211242F9392
:102260003F934F935F936F937F938F939F93AF931E
:10227000BF93EF93FF93DF93CF93CDB7DEB78091FA
:102280009C0190919D01009729F0E0919C01F091B3
:102290009D010995CF91DF91FF91EF91BF91AF9192
:1022A0009F918F917F916F915F914F913F912F916E
:1022B0000F900FBE0F901F9018951F920F920FB6A0
:1022C0000F9211242F933F934F935F936F937F93BC
:1022D0008F939F93AF93BF93EF93FF93DF93CF932E
:1022E000CDB7DEB780919E0190919F01009729F0B4
:1022F000E0919E01F0919F010995CF91DF91FF91AF
:10230000EF91BF91AF919F918F917F916F915F916D
:102310004F913F912F910F900FBE0F901F901895E6
:102320001F920F920FB60F9211242F933F934F934A
:102330005F936F937F938F939F93AF93BF93EF932D
:10234000FF93DF93CF93CDB7DEB78091A00190913B
:10235000A101009729F0E091A001F091A101099558
:10236000CF91DF91FF91EF91BF91AF919F918F91AD
:102370007F916F915F914F913F912F910F900FBE81
:102380000F901F901895DF93CF9300D0CDB7DEB795
:102390009A83898383E062E040E00E94DF07A5E53D
:1023A000B0E0E5E5F0E08081982F9C7FE981FA813B
:1023B0008381892B8C93ABE5B0E0EBE5F0E0808185
:1023C000282F2F7BE981FA818081882F90E00024DB
:1023D000969587950794969587950794982F802DC5
:1023E000822B8C930F900F90CF91DF910895DF9304
:1023F000CF9300D0CDB7DEB79A83898383E063E0C3
:1024000040E00E94DF07A5E5B0E0E5E5F0E080816F
:10241000282F237FE981FA818481882F90E0880F1B
:10242000991F880F991F822B8C93ABE5B0E0EBE5E9
:10243000F0E08081282F2F77E981FA818181882F30
:1024400090E09695982F882797958795822B8C9367
:102450000F900F90CF91DF910895DF93CF9300D02D
:10246000CDB7DEB79A83898381E062E040E00E94C5
:10247000DF07A4E5B0E0E4E5F0E08081282F2F7BC2
:10248000E981FA818581882F90E0002496958795CF
:102490000794969587950794982F802D822B8C937F
:1024A000ABE5B0E0EBE5F0E08081282F2F7DE981FE
:1024B000FA818281882F90E0880F991F82959295EA
:1024C000907F9827807F9827822B8C930F900F9076
:1024D000CF91DF910895DF93CF9300D0CDB7DEB7D2
:1024E0009A83898389819A8190939D0180939C012D
:1024F0000F900F90CF91DF910895DF93CF9300D08D
:10250000CDB7DEB79A83898389819A8190939F01A1
:1025100080939E010F900F90CF91DF910895DF93EC
:10252000CF9300D0CDB7DEB79A83898389819A8112
:102530009093A1018093A0010F900F90CF91DF9114
:102540000895DF93CF9300D00F92CDB7DEB79A8373
:102550008983E0E2F0E08081A0E2B0E0E981FA81E5
:1025600086818C93A6E5B0E0E6E5F0E08081282F37
:102570002F7BE981FA818181882F90E00024969554
:1025800087950794969587950794982F802D822B91
:102590008C93A1E2B0E0E1E2F0E08081982F9C7F93
:1025A000E981FA818381892B8C93A2E2B0E0E2E297
:1025B000F0E08081282F2170E981FA818581882FC0
:1025C00090E0880F991F822B8C93A2E2B0E0E2E2A8
:1025D000F0E08081982F9E7FE981FA818481892BA8
:1025E0008C93A6E5B0E0E6E5F0E08081982F9E7F31
:1025F000E981FA818081892B8C93A6E5B0E0E6E53C
:10260000F0E08081282F2B7FE981FA818281882F59
:1026100090E0880F991F880F991F822B8C930F9041
:102620000F900F90CF91DF910895DF93CF93CDB7A7
:10263000DEB7E6E5F0E084EA8083E6E5F0E080815D
:102640008823DCF7CF91DF910895DF93CF93CDB747
:10265000DEB7E6E5F0E084E98083CF91DF9108956D
:10266000DF93CF930F92CDB7DEB78983E3E2F0E03B
:1026700089818083E6E5F0E084E88083E6E5F0E0A8
:1026800080818823DCF70F90CF91DF910895DF934D
:10269000CF93CDB7DEB7E6E5F0E084EC8083E6E5E6
:1026A000F0E080818823DCF7E3E2F0E08081CF91E5
:1026B000DF910895DF93CF93CDB7DEB7E6E5F0E085
:1026C00084E88083E6E5F0E080818823DCF7E3E2BC
:1026D000F0E08081CF91DF910895DF93CF930F9247
:1026E000CDB7DEB7E1E2F0E08081887F8983898120
:1026F0000F90CF91DF910895DF93CF93CDB7DEB7E1
:1027000081E060E041E00E94DF0781E061E041E0BC
:102710000E94DF0781E063E041E00E94DF07CF9184
:10272000DF910895DF93CF9300D0CDB7DEB78983D3
:102730006A838981882359F481E060E041E00E9446
:10274000CA0881E061E040E00E94CA080DC08981AA
:10275000813051F481E061E041E00E94CA0881E0EB
:1027600060E040E00E94CA08CE0102960E94250D5A
:102770000F900F90CF91DF910895DF93CF930F9239
:10278000CDB7DEB71982CE0101960E94250D0F90BC
:10279000CF91DF910895DF93CF9300D000D0CDB7D4
:1027A000DEB79A8389836B830E9415130E946D1391
:1027B000883011F01C8228C089819A8180709770BE
:1027C000880F892F881F990B9195806A0E9430137A
:1027D0000E946D13883111F01C8216C089810E94FD
:1027E00030130E946D13883211F01C820DC08B8152
:1027F0000E9430130E946D13883211F01C8204C0B5
:102800000E94251381E08C838C810F900F900F9094
:102810000F90CF91DF910895DF93CF9300D000D038
:102820000F92CDB7DEB79A8389837C836B830E9436
:1028300015130E946D13883011F01D8244C08981E8
:102840009A8180709770880F892F881F990B9195B6
:10285000806A0E9430130E946D13883111F01D822E
:1028600032C089810E9430130E946D13883211F0AA
:102870001D8229C00E9415130E946D13803111F032
:102880001D8221C089819A8180709770880F892F5D
:10289000881F990B9195816A0E9430130E946D13D5
:1028A000803411F01D820FC00E945A13EB81FC810D
:1028B00080830E946D13883511F01D8204C00E9430
:1028C000251381E08D838D810F900F900F900F90D5
:1028D0000F90CF91DF910895DF93CF9300D00F92A7
:1028E000CDB7DEB71B821A82198280E00E94AB0747
:1028F0009A83898389819A81CC01A0E0B0E02EEE91
:1029000032E040E050E0BC01CD010E949919DC01A9
:10291000CB01BC01CD010E940705DC01CB01BC014C
:10292000CD0120E030ED4FEB54E40E941903DC01AF
:10293000CB01BC01CD010E944900DC01CB018B839E
:102940008B810F900F900F90CF91DF910895DF93BF
:10295000CF93CDB7DEB7E6970FB6F894DEBF0FBEC4
:10296000CDBF81E0898387E08A83CE0101960E94F2
:102970007507CE01039699A788A7E6E8F1E0FBA7C3
:10298000EAA7F0E1FCA7EAA5FBA500808AA59BA524
:1029900001969BA78AA7E8A5F9A5008288A599A515
:1029A000019699A788A79CA591509CA7ECA5EE231A
:1029B00051F7CE0103960E94340F83E08B8BCE013A
:1029C00043960E94030DCE014B969EA78DA7EFE77D
:1029D000F1E0F8ABEFA7F7E0F9ABEFA5F8A90080BD
:1029E0008FA598A9019698AB8FA7EDA5FEA50082AB
:1029F0008DA59EA501969EA78DA799A9915099ABEB
:102A0000E9A9EE2351F7CE014B960E94A11284E86A
:102A100095E10E94570E0E947C13CE0182969BABDB
:102A20008AABE9E7F1E0FDABECABF6E0FEABECA97D
:102A3000FDA900808CA99DA901969DAB8CABEAA94C
:102A4000FBA900828AA99BA901969BAB8AAB9EA990
:102A500091509EABEEA9EE2351F7CE0182960E94D3
:102A6000C31180E795E10E946B12AFE5B0E0EFE59E
:102A7000F0E0808180688C93E6960FB6F894DEBF14
:102A80000FBECDBFCF91DF910895DF93CF93CDB728
:102A9000DEB70E94A7140E94FB188091A201882330
:102AA00051F40E94AF108031E1F78EE40E9498103B
:102AB0000E942C16F0CF8091A201813051F40E9427
:102AC000AF108031E1F785E40E9498100E949F17B3
:102AD000E2CF8091A2018230F1F60E944818DBCF4C
:102AE000DF93CF93CDB7DEB78091A301882349F060
:102AF0000E94AF108031E1F783E50E949810109298
:102B0000A301CF91DF910895DF93CF93CDB7DEB7C7
:102B10002F970FB6F894DEBF0FBECDBF1F860E9461
:102B2000690E1092A6018091A5018F5F8093A50187
:102B30008091A5018E3008F081C00E946C148F87AF
:102B40008F85833308F07FC080E191E060E00E94D0
:102B5000CB1380E090E0A0E2B1E48B879C87AD8747
:102B6000BE876B857C858D859E8520E030E04AEFB1
:102B700054E40E941F02DC01CB018F839887A98750
:102B8000BA876F81788589859A8520E030E040E8B2
:102B90005FE30E94250488232CF481E090E09E836B
:102BA0008D833FC06F81788589859A8520E03FEFCE
:102BB0004FE757E40E94C50318164CF56B857C85DA
:102BC0008D859E8520E030E040E251E40E941F02A6
:102BD000DC01CB01BC01CD010E944900DC01CB012D
:102BE0009E838D830FC088EC90E09C838B838B81C8
:102BF0009C810197F1F79C838B838D819E81019746
:102C00009E838D838D819E81009769F714C06F81AB
:102C1000788589859A850E944900DC01CB019E83D5
:102C20008D838D819E819A83898389819A81019781
:102C3000F1F79A8389831092A50105C01092A5012E
:102C400081E08093A4012F960FB6F894DEBF0FBEEB
:102C5000CDBFCF91DF910895DF93CF93CDB7DEB78E
:102C60006D970FB6F894DEBF0FBECDBF1D8E80E10D
:102C700091E060E00E94CB1380E090E0A0E2B1E43C
:102C8000898F9A8FAB8FBC8F698D7A8D8B8D9C8D40
:102C900020E030E04AEF54E40E941F02DC01CB0147
:102CA0008D8B9E8BAF8BB88F6D897E898F89988D28
:102CB00020E030E040E85FE30E94250488232CF404
:102CC00081E090E09C8B8B8B3FC06D897E898F89E2
:102CD000988D20E03FEF4FE757E40E94C503181698
:102CE0004CF5698D7A8D8B8D9C8D20E030E040E233
:102CF00051E40E941F02DC01CB01BC01CD010E9406
:102D00004900DC01CB019C8B8B8B0FC088EC90E0E1
:102D10009A8B898B89899A890197F1F79A8B898B8C
:102D20008B899C8901979C8B8B8B8B899C890097C5
:102D300069F714C06D897E898F89988D0E9449003A
:102D4000DC01CB019C8B8B8B8B899C89988B8F872B
:102D50008F8598890197F1F7988B8F870E946C1463
:102D60008D8F8D8D843160F41092A3010E94BD136C
:102D70000E94AF108031E1F787E40E949810D6C01E
:102D80008D8D8431D0F18D8D8832B8F51092A301EC
:102D90008D8D882F90E04497AA2797FDA095BA2F94
:102DA000BC01CD010E945504DC01CB01BC01CD0169
:102DB00020E030E040EA51E40E941903DC01CB013D
:102DC000BC01CD0120E030E04FE753E40E941F0238
:102DD000DC01CB01BC01CD010E944900DC01CB012B
:102DE000982F80E0692F0E9492130E94AF108031CB
:102DF000E1F789E50E94981099C08D8D883290F096
:102E00008D8D833378F480E06FEF0E9492130E94DF
:102E1000AF108031E1F782E50E94981081E0809345
:102E2000A30184C08D8D833308F480C01092A30168
:102E300080E191E061E00E94CB1380E090E0A0E2AD
:102E4000B1E48B879C87AD87BE876B857C858D853C
:102E50009E8520E030E04AEF54E40E941F02DC012E
:102E6000CB018F839887A987BA876F8178858985F9
:102E70009A8520E030E040E85FE30E942504882343
:102E80002CF481E090E09E838D833FC06F81788534
:102E900089859A8520E03FEF4FE757E40E94C503FC
:102EA00018164CF56B857C858D859E8520E030E07D
:102EB00040E251E40E941F02DC01CB01BC01CD01C4
:102EC0000E944900DC01CB019E838D830FC088ECFA
:102ED00090E09C838B838B819C810197F1F79C838D
:102EE0008B838D819E8101979E838D838D819E81B1
:102EF000009769F714C06F81788589859A850E944B
:102F00004900DC01CB019E838D838D819E819A8354
:102F1000898389819A810197F1F79A8389830E9435
:102F2000AF108031E1F788E40E9498106D960FB6DB
:102F3000F894DEBF0FBECDBFCF91DF910895DF9330
:102F4000CF93CDB7DEB72E970FB6F894DEBF0FBE86
:102F5000CDBF8091A601882339F488E691E00E94D4
:102F60003A0D81E08093A60180E06FEF0E949213FA
:102F70008091A401882309F482C01092A40180E109
:102F800091E062E00E94CB1380E090E0A0E2B1E427
:102F90008B879C87AD87BE876B857C858D859E855D
:102FA00020E030E04AEF54E40E941F02DC01CB0134
:102FB0008F839887A987BA876F81788589859A8555
:102FC00020E030E040E85FE30E94250488232CF4F1
:102FD00081E090E09E838D833FC06F8178858985F5
:102FE0009A8520E03FEF4FE757E40E94C50318168B
:102FF0004CF56B857C858D859E8520E030E040E238
:1030000051E40E941F02DC01CB01BC01CD010E94F2
:103010004900DC01CB019E838D830FC088EC90E0DA
:103020009C838B838B819C810197F1F79C838B839D
:103030008D819E8101979E838D838D819E810097D6
:1030400069F714C06F81788589859A850E94490047
:10305000DC01CB019E838D838D819E819A83898340
:1030600089819A810197F1F79A8389830E94AF1031
:103070008031E1F781E40E9498100E94E5182E96B5
:103080000FB6F894DEBF0FBECDBFCF91DF9108958C
:10309000DF93CF93CDB7DEB72F970FB6F894DEBF8F
:1030A0000FBECDBF1F860E946C148F878F85833320
:1030B00060F080E06FEF0E9492130E94AF108031A9
:1030C000E1F781E40E94981077C080E191E060E030
:1030D0000E94CB1380E090E0A0E2B1E48B879C8754
:1030E000AD87BE876B857C858D859E8520E030E031
:1030F0004AEF54E40E941F02DC01CB018F839887C2
:10310000A987BA876F81788589859A8520E030E024
:1031100040E85FE30E94250488232CF481E090E0DE
:103120009E838D833FC06F81788589859A8520E055
:103130003FEF4FE757E40E94C50318164CF56B8527
:103140007C858D859E8520E030E040E251E40E9440
:103150001F02DC01CB01BC01CD010E944900DC0152
:10316000CB019E838D830FC088EC90E09C838B8382
:103170008B819C810197F1F79C838B838D819E814C
:1031800001979E838D838D819E81009769F714C07E
:103190006F81788589859A850E944900DC01CB0181
:1031A0009E838D838D819E819A83898389819A8173
:1031B0000197F1F79A8389832F960FB6F894DEBFB3
:1031C0000FBECDBFCF91DF910895DF93CF93CDB7E1
:1031D000DEB7F894A4E5B0E0E4E5F0E08081886033
:1031E0008C9388E190E028E00FB6F894A89581BD13
:1031F0000FBE21BDFFCFDF93CF93CDB7DEB72F97A3
:103200000FB6F894DEBF0FBECDBF1F869E01215FB3
:103210003F4F80E191E0B9010E940C1480E090E002
:10322000A0E2B1E48B879C87AD87BE876B857C85E8
:103230008D859E8520E030E04AEF54E40E941F0215
:10324000DC01CB018F839887A987BA876F81788546
:1032500089859A8520E030E040E85FE30E942504FC
:1032600088232CF481E090E09E838D833FC06F81A2
:10327000788589859A8520E03FEF4FE757E40E94E3
:10328000C50318164CF56B857C858D859E8520E0E1
:1032900030E040E251E40E941F02DC01CB01BC019E
:1032A000CD010E944900DC01CB019E838D830FC0BC
:1032B00088EC90E09C838B838B819C810197F1F754
:1032C0009C838B838D819E8101979E838D838D81CD
:1032D0009E81009769F714C06F81788589859A85EA
:1032E0000E944900DC01CB019E838D838D819E81EC
:1032F0009A83898389819A810197F1F79A838983D7
:103300008F85823021F482E08093A20109C08F85ED
:10331000813021F481E08093A20102C01092A201C9
:103320002F960FB6F894DEBF0FBECDBFCF91DF91C1
:103330000895629FD001739FF001829FE00DF11DFF
:10334000649FE00DF11D929FF00D839FF00D749F1F
:10335000F00D659FF00D9927729FB00DE11DF91FCB
:10336000639FB00DE11DF91FBD01CF011124089528
:10337000A1E21A2EAA1BBB1BFD010DC0AA1FBB1F79
:10338000EE1FFF1FA217B307E407F50720F0A21BEB
:10339000B30BE40BF50B661F771F881F991F1A9458
:1033A00069F760957095809590959B01AC01BD0182
:1033B000CF0108952F923F924F925F926F927F922A
:1033C0008F929F92AF92BF92CF92DF92EF92FF9235
:1033D0000F931F93CF93DF93CDB7DEB7CA1BDB0BE1
:1033E0000FB6F894DEBF0FBECDBF09942A88398886
:1033F00048885F846E847D848C849B84AA84B9848D
:10340000C884DF80EE80FD800C811B81AA81B98198
:10341000CE0FD11D0FB6F894DEBF0FBECDBFED01AC
:063420000895F894FFCFAF
:103426000000000000000000000102020303030385
:10343600040404040404040405050505050505053E
:10344600050505050505050506060606060606061E
:103456000606060606060606060606060606060606
:1034660006060606060606060707070707070707EE
:1034760007070707070707070707070707070707D6
:1034860007070707070707070707070707070707C6
:1034960007070707070707070707070707070707B6
:1034A600070707070707070708080808080808089E
:1034B6000808080808080808080808080808080886
:1034C6000808080808080808080808080808080876
:1034D6000808080808080808080808080808080866
:1034E6000808080808080808080808080808080856
:1034F6000808080808080808080808080808080846
:103506000808080808080808080808080808080835
:103516000808080808080808080808080808080825
:10352600080808080808080800000100000005044B
:103536000100000000380600000100000300000042
:10354600000100000102010000000101030100006A
:06355600000080250000CA
:00000001FF
