:100000000C942A000C9447000C9447000C94470071
:100010000C945E0B0C942B0B0C9447000C94F80A78
:100020000C9447000C94C50A0C94920A0C945F0A35
:100030000C9447000C9447000C9447000C94470024
:100040000C9447000C9447000C9447000C94470014
:100050000C94470011241FBECFE5D8E0DEBFCDBF12
:1000600011E0A0E6B0E0EAE1F7E202C005900D92EF
:10007000AA38B107D9F711E0AAE8B1E001C01D9292
:10008000A239B107E1F70E9415120C948B130C945E
:100090000000EF92FF920F931F937B018C0120E0F1
:1000A00030E040E05FE40E94C50388238CF0C80183
:1000B000B70120E030E040E05FE40E94C1010E940F
:1000C000F5039B01AC01205030404040504806C031
:1000D000C801B7010E94F5039B01AC01B901CA0137
:1000E0001F910F91FF90EF900895A0E0B0E0EBE733
:1000F000F0E00C945413DC012B01FA019C91923036
:1001000008F439C1EB018881823008F433C194309E
:1001100069F4843009F02FC111969C91119789815F
:10012000981709F428C1A0E6B0E025C1843009F48D
:1001300021C18230A9F4923009F01DC19A01AD01AC
:1001400088E0EA010990AE01E90109929E0181501F
:10015000C1F7E201898111969C918923818308C1AD
:10016000923009F407C112962D903C901397EB0141
:100170008A819B811496AD90BD90CD90DC901797AD
:10018000EC80FD800E811F819101281B390BB90184
:1001900037FF04C066277727621B730B6032710537
:1001A0000CF061C0121613066CF537014801062EDB
:1001B00004C096948794779467940A94D2F721E0C8
:1001C00030E040E050E004C0220F331F441F551FB1
:1001D0006A95D2F721503040404050402E213F21B7
:1001E00040235123211531054105510521F021E01E
:1001F00030E040E050E079018A01E628F72808293C
:1002000019293CC0232BD1F1260E371E350146019A
:10021000062E04C096948794779467940A94D2F734
:1002200021E030E040E050E004C0220F331F441FC3
:10023000551F6A95D2F721503040404050402A2146
:100240003B214C215D21211531054105510521F04E
:1002500021E030E040E050E059016A01A628B728CB
:10026000C828D9280BC0821593052CF01C01AA249C
:10027000BB24650103C0EE24FF24870111969C91E5
:10028000D20111968C91981709F445C0992339F041
:10029000A80197012A193B094C095D0906C0A6016E
:1002A00095012E193F09400B510B57FD08C01182D3
:1002B0003382228224833583468357831DC081E0A5
:1002C00081833382228288279927DC01821B930B4A
:1002D000A40BB50B84839583A683B7830DC0220F2F
:1002E000331F441F551F24833583468357838281E0
:1002F000938101979383828324813581468157813D
:10030000DA01C9010197A109B1098F5F9F4FAF4F72
:10031000BF4328F30BC0918333822282EA0CFB1C7B
:100320000C1D1D1DE482F5820683178383E0808304
:10033000248135814681578157FF1AC0C901AA27F8
:1003400097FDA095BA2F81709070A070B0705695EF
:10035000479537952795822B932BA42BB52B848318
:100360009583A683B7838281938101969383828349
:10037000DF0101C0D201CD01CDB7DEB7E2E10C94BF
:100380007013A0E2B0E0E7ECF1E00C946013698335
:100390007A838B839C832D833E834F835887E9E048
:1003A000EE2EF12CEC0EFD1ECE010196B7010E943F
:1003B000E6058E010F5E1F4FCE010596B8010E9423
:1003C000E6058A8991E089278A8BC701B801AE01C9
:1003D000475E5F4F0E9475000E941105A096E6E0FF
:1003E0000C947C13A0E2B0E0E8EFF1E00C94601311
:1003F00069837A838B839C832D833E834F835887C5
:10040000F9E0EF2EF12CEC0EFD1ECE010196B701A6
:100410000E94E6058E010F5E1F4FCE010596B801C2
:100420000E94E605C701B801AE01475E5F4F0E941A
:1004300075000E941105A096E6E00C947C13A0E2E2
:10044000B0E0E5E2F2E00C94541369837A838B8385
:100450009C832D833E834F835887CE010196BE0136
:10046000675F7F4F0E94E605CE010596BE016F5E75
:100470007F4F0E94E6059985923088F08989823005
:10048000C8F0943019F4823051F404C0843029F457
:10049000923081F480E690E0C6C0923049F420E0CA
:1004A0009A858A89981321E02A87CE010996BBC0D4
:1004B000823049F420E09A858A89981321E02A8BBA
:1004C000CE014196B0C02D843E844F8458886D88FB
:1004D0007E888F88988CEE24FF248701AA24BB2471
:1004E000650140E050E060E070E0E0E0F0E0C10174
:1004F00081709070892BE9F0E60CF71C081D191D1E
:100500009A01AB012A0D3B1D4C1D5D1D80E090E062
:10051000A0E0B0E0E614F7040805190520F481E036
:1005200090E0A0E0B0E0BA01A901480F591F6A1F8E
:100530007B1FAA0CBB1CCC1CDD1C97FE08C081E0F5
:1005400090E0A0E0B0E0A82AB92ACA2ADB2A3196B6
:10055000E032F10549F0660C771C881C991C569412
:10056000479437942794C3CFFA85EA892B893C892D
:100570008B859C85280F391F2E5F3F4F17C0CA01FE
:1005800081709070892B61F016950795F794E79428
:1005900080E090E0A0E0B0E8E82AF92A0A2B1B2BC3
:1005A00076956795579547952F5F3F4F77FDE7CF36
:1005B0000CC0440F551F661F771F17FD4160EE0CDE
:1005C000FF1C001F111F21503040403090E05907A0
:1005D00090E0690790E4790760F32B8F3C8FDB0193
:1005E000CA018F779070A070B07080349105A1051A
:1005F000B10561F447FD0AC0E114F10401051105DC
:1006000029F0405C5F4F6F4F7F4F40781A8EFE1786
:1006100011F081E08A8F4D8F5E8F6F8F78A383E01A
:10062000898FCE0149960E941105A096E2E10C94B3
:100630007013A8E1B0E0EFE1F3E00C945C13698380
:100640007A838B839C832D833E834F835887B9E0C5
:10065000EB2EF12CEC0EFD1ECE010196B7010E948F
:10066000E6058E010F5E1F4FCE010596B8010E9470
:10067000E6052985223008F47EC03989323010F42D
:10068000B8017CC08A859A8989278A87243011F02D
:10069000223031F4231709F06EC060E670E06EC0BE
:1006A000343039F41D861E861F86188A1C861B86E8
:1006B00004C0323021F484E08987B7015FC02B8504
:1006C0003C858B899C89281B390B3C872B87ED84C3
:1006D000FE840F851889AD88BE88CF88D88CEA142F
:1006E000FB040C051D0540F4EE0CFF1C001F111F40
:1006F000215030403C872B8720E030E040E050E044
:1007000080E090E0A0E0B0E460E070E0EA14FB0478
:100710000C051D0540F0282B392B4A2B5B2BEA18C2
:10072000FB080C091D09B695A79597958795EE0CC2
:10073000FF1C001F111F6F5F7F4F6F31710531F775
:10074000DA01C9018F779070A070B0708034910584
:10075000A105B10561F427FD0AC0E114F10401050A
:10076000110529F0205C3F4F4F4F5F4F20782D87B8
:100770003E874F87588BBE01675F7F4FCB010E943A
:1007800011056896EAE00C947813A8E1B0E0EBEC70
:10079000F3E00C94601369837A838B839C832D83AD
:1007A0003E834F83588789E0E82EF12CEC0EFD1E26
:1007B000CE010196B7010E94E6058E010F5E1F4F24
:1007C000CE010596B8010E94E6058985823040F089
:1007D0008989823028F0C701B8010E945E0601C0F5
:1007E0008FEF6896E6E00C947C13ACE0B0E0EBEFA2
:1007F000F3E00C94641369837A838B839C83CE012A
:100800000196BE016B5F7F4F0E94E6058D818230AD
:1008100061F1823050F1843021F48E81882351F1CE
:100820002EC02F81388537FD20C06E812F313105D4
:100830001CF06623F9F023C08EE190E0821B930B3D
:1008400029853A854B855C8504C056954795379533
:1008500027958A95D2F76623B1F05095409530954B
:1008600021953F4F4F4F5F4F0EC020E030E040E0FA
:1008700050E009C02FEF3FEF4FEF5FE704C020E0EB
:1008800030E040E050E8B901CA012C96E2E00C9457
:100890008013A8E0B0E0EFE4F4E00C945C137B017B
:1008A0008C01611571058105910519F482E0898338
:1008B00060C083E089838EE1C82ED12CDC82CB829C
:1008C000ED82FE820F831887C801B7010E94C2041F
:1008D000FC013197F7FF3BC0222733272E1B3F0B2C
:1008E00057016801022E04C0D694C794B794A79408
:1008F0000A94D2F740E050E060E070E081E090E0E0
:10090000A0E0B0E004C0880F991FAA1FBB1F2A9562
:10091000D2F70197A109B1098E219F21A023B1230C
:100920000097A105B10521F041E050E060E070E0E2
:100930004A295B296C297D294D835E836F837887E3
:100940008EE190E08E1B9F0B9C838B8312C03097AF
:1009500081F00E2E04C0EE0CFF1C001F111F0A9424
:10096000D2F7ED82FE820F831887CE1ADF0ADC826F
:10097000CB821A82CE0101960E9411052896EAE0E8
:100980000C947813EF92FF920F931F937B018C01CD
:1009900080E0E81680E0F80681E0080780E01807AC
:1009A00088F48FEFE816F1040105110531F028F005
:1009B00088E090E0A0E0B0E017C080E090E0A0E028
:1009C000B0E012C080E0E81680E0F80680E008079A
:1009D00081E0180728F088E190E0A0E0B0E004C0D2
:1009E00080E190E0A0E0B0E020E230E040E050E0C4
:1009F000281B390B4A0B5B0B04C016950795F7941F
:100A0000E7948A95D2F7F701E859FF4F8081281BB8
:100A1000310941095109C9011F910F91FF90EF90D0
:100A20000895DF92EF92FF920F931F93FC01E480F1
:100A3000F58006811781D1808081823048F480E082
:100A400090E0A0E1B0E0E82AF92A0A2B1B2BA5C010
:100A5000843009F49FC0823021F4EE24FF24870102
:100A600005C0E114F1040105110519F4E0E0F0E01E
:100A700096C0628173819FEF623879070CF05BC08A
:100A800022E83FEF261B370B2A3131052CF020E0FE
:100A900030E040E050E02AC0B801A701022E04C0B7
:100AA00076956795579547950A94D2F781E090E03F
:100AB000A0E0B0E004C0880F991FAA1FBB1F2A95B1
:100AC000D2F70197A109B1098E219F21A023B1235B
:100AD0000097A105B10521F081E090E0A0E0B0E031
:100AE0009A01AB01282B392B4A2B5B2BDA01C90168
:100AF0008F779070A070B07080349105A105B1051A
:100B000039F427FF09C0205C3F4F4F4F5F4F04C0AF
:100B1000215C3F4F4F4F5F4FE0E0F0E02030A0E01E
:100B20003A07A0E04A07A0E45A0710F0E1E0F0E03D
:100B300079018A0127C06038710564F5FB01E1582D
:100B4000FF4FD801C7018F779070A070B0708034CC
:100B50009105A105B10539F4E7FE0DC080E490E0F0
:100B6000A0E0B0E004C08FE390E0A0E0B0E0E80EC9
:100B7000F91E0A1F1B1F17FF05C016950795F7944E
:100B8000E794319687E016950795F794E7948A9550
:100B9000D1F705C0EE24FF248701EFEFF0E06E2FC0
:100BA000679566276795902F9F77D794DD24D79414
:100BB0008E2F8695492F462B582F5D29B701CA01E4
:100BC0001F910F91FF90EF90DF900895FC01DB01E2
:100BD000408151812281622F6F7770E0221F22278E
:100BE000221F9381892F880F822B282F30E0991F95
:100BF0009927991F11969C93119721153105A9F5F5
:100C0000411551056105710511F482E037C082E894
:100C10009FEF13969C938E9312979A01AB0167E016
:100C2000220F331F441F551F6A95D1F783E08C9321
:100C30000DC0220F331F441F551F12968D919C919A
:100C40001397019713969C938E931297203080E010
:100C5000380780E0480780E4580758F314962D932E
:100C60003D934D935C93179708952F3F310579F489
:100C7000411551056105710519F484E08C930895BF
:100C800064FF03C081E08C9312C01C9210C02F57E8
:100C9000304013963C932E93129783E08C9387E019
:100CA000440F551F661F771F8A95D1F770641496FD
:100CB0004D935D936D937C93179708951F93DC017B
:100CC000FB019C91923008F447C08081823008F487
:100CD00043C0943051F411961C91843099F5818170
:100CE000682F70E0611B71093FC0843021F09230A1
:100CF00031F48230B9F18181882389F12DC01196B8
:100D00001C9111978230F1F081811817D9F4129655
:100D10002D913C911397828193818217930794F0D0
:100D200028173907BCF014968D919D910D90BC91B8
:100D3000A02D2481358146815781281739074A071C
:100D40005B0718F4112341F00AC082179307A40728
:100D5000B50740F4112319F061E070E005C06FEFB2
:100D60007FEF02C060E070E0CB011F910895DF9338
:100D7000CF9300D0CDB7DEB79A838983A7E2B0E0E6
:100D8000E7E2F0E08081282F2F73E981FA818081EA
:100D9000882F90E0002496958795079496958795DF
:100DA0000794982F802D822B8C93A6E2B0E0E6E288
:100DB000F0E0808180688C93A6E2B0E0E6E2F0E0AB
:100DC0008081982F987FE981FA818181892B8C938A
:100DD0000F900F90CF91DF910895DF93CF930F92F3
:100DE000CDB7DEB78983A7E2B0E0E7E2F0E080812B
:100DF000807E8C93A7E2B0E0E7E2F0E09081898109
:100E0000892B8C93A6E2B0E0E6E2F0E0808180647A
:100E10008C93E6E2F0E08081882F90E08071907002
:100E20000097B9F3A6E2B0E0E6E2F0E080818061ED
:100E30008C93E4E2F0E0808191810F90CF91DF917B
:100E40000895DF93CF9300D000D00F92CDB7DEB7D7
:100E500089836A834B838981843008F0D5C08A8175
:100E6000883008F0D1C08981282F30E03D832C8361
:100E70008C819D818130910509F443C02C813D8195
:100E8000223031052CF48C819D81009771F0BCC01B
:100E90002C813D812230310509F45FC08C819D8118
:100EA0008330910509F485C0AFC08B818823A9F4F4
:100EB000AAE3B0E0EAE3F0E08081482F8A81282F9E
:100EC00030E081E090E0022E02C0880F991F0A9462
:100ED000E2F7809584238C9397C0AAE3B0E0EAE31D
:100EE000F0E08081482F8A81282F30E081E090E077
:100EF000022E02C0880F991F0A94E2F7842B8C936C
:100F000083C08B818823A9F4A7E3B0E0E7E3F0E096
:100F10008081482F8A81282F30E081E090E0022EE6
:100F200002C0880F991F0A94E2F7809584238C935E
:100F30006BC0A7E3B0E0E7E3F0E08081482F8A814F
:100F4000282F30E081E090E0022E02C0880F991F28
:100F50000A94E2F7842B8C9357C08B818823A9F4E1
:100F6000A4E3B0E0E4E3F0E08081482F8A81282FF9
:100F700030E081E090E0022E02C0880F991F0A94B1
:100F8000E2F7809584238C933FC0A4E3B0E0E4E3D0
:100F9000F0E08081482F8A81282F30E081E090E0C6
:100FA000022E02C0880F991F0A94E2F7842B8C93BB
:100FB0002BC08B818823A9F4A1E3B0E0E1E3F0E04A
:100FC0008081482F8A81282F30E081E090E0022E36
:100FD00002C0880F991F0A94E2F7809584238C93AE
:100FE00013C0A1E3B0E0E1E3F0E08081482F8A8103
:100FF000282F30E081E090E0022E02C0880F991F78
:101000000A94E2F7842B8C930F900F900F900F901F
:101010000F90CF91DF910895DF93CF9300D000D050
:101020000F92CDB7DEB789836A834B838981843081
:1010300008F0D5C08A81883008F0D1C08981282F76
:1010400030E03D832C838C819D818130910509F4B2
:1010500043C02C813D81223031052CF48C819D814F
:10106000009771F0BCC02C813D812230310509F41C
:101070005FC08C819D818330910509F485C0AFC02C
:101080008B818823A9F4ABE3B0E0EBE3F0E080814F
:10109000482F8A81282F30E081E090E0022E02C0A4
:1010A000880F991F0A94E2F7809584238C9397C048
:1010B000ABE3B0E0EBE3F0E08081482F8A81282F9A
:1010C00030E081E090E0022E02C0880F991F0A9460
:1010D000E2F7842B8C9383C08B818823A9F4A8E347
:1010E000B0E0E8E3F0E08081482F8A81282F30E0EB
:1010F00081E090E0022E02C0880F991F0A94E2F767
:10110000809584238C936BC0A8E3B0E0E8E3F0E023
:101110008081482F8A81282F30E081E090E0022EE4
:1011200002C0880F991F0A94E2F7842B8C9357C052
:101130008B818823A9F4A5E3B0E0E5E3F0E08081AA
:10114000482F8A81282F30E081E090E0022E02C0F3
:10115000880F991F0A94E2F7809584238C933FC0EF
:10116000A5E3B0E0E5E3F0E08081482F8A81282FF5
:1011700030E081E090E0022E02C0880F991F0A94AF
:10118000E2F7842B8C932BC08B818823A9F4A2E3F4
:10119000B0E0E2E3F0E08081482F8A81282F30E040
:1011A00081E090E0022E02C0880F991F0A94E2F7B6
:1011B000809584238C9313C0A2E3B0E0E2E3F0E0D7
:1011C0008081482F8A81282F30E081E090E0022E34
:1011D00002C0880F991F0A94E2F7842B8C930F901A
:1011E0000F900F900F900F90CF91DF910895DF93A4
:1011F000CF9300D000D00F92CDB7DEB78A836B8338
:1012000019828A81843008F084C08B81883008F08C
:1012100080C08A81282F30E03D832C834C815D8102
:101220004130510579F18C819D818230910534F4F2
:101230002C813D812115310569F06BC04C815D81A8
:1012400042305105B9F18C819D818330910509F4BB
:1012500049C05FC0E9E3F0E08081282F30E08B8156
:10126000882F90E0A90102C0559547958A95E2F72D
:10127000CA0181709070882319F081E0898349C088
:10128000198247C0E6E3F0E08081282F30E08B81AF
:10129000882F90E0A90102C0559547958A95E2F7FD
:1012A000CA0181709070882319F081E0898331C070
:1012B00019822FC0E3E3F0E08081282F30E08B819A
:1012C000882F90E0A90102C0559547958A95E2F7CD
:1012D000CA0181709070882319F081E0898319C058
:1012E000198217C0E0E3F0E08081282F30E08B8185
:1012F000882F90E0A90102C0559547958A95E2F79D
:10130000CA0181709070882319F081E0898301C03F
:10131000198289810F900F900F900F900F90CF91AD
:10132000DF910895DF93CF9300D000D0CDB7DEB723
:1013300089836A838981843090F58981282F30E000
:101340003C832B838B819C8181309105D1F02B8153
:101350003C81223031052CF48B819C81009761F017
:101360001EC02B813C812230310581F08B819C8114
:101370008330910581F013C0EAE3F0E08A81808335
:101380000EC0E7E3F0E08A81808309C0E4E3F0E087
:101390008A81808304C0E1E3F0E08A8180830F903A
:1013A0000F900F900F90CF91DF910895DF93CF931F
:1013B00000D000D0CDB7DEB789836A8389818530BC
:1013C00090F58981282F30E03C832B838B819C8191
:1013D00081309105D1F02B813C81223031052CF4F4
:1013E0008B819C81009761F01EC02B813C81223053
:1013F000310581F08B819C818330910581F013C090
:10140000EBE3F0E08A8180830EC0E8E3F0E08A81BC
:10141000808309C0E5E3F0E08A81808304C0E2E3D1
:10142000F0E08A8180830F900F900F900F90CF9102
:10143000DF910895DF93CF9300D000D0CDB7DEB712
:101440008A8319828A81843090F58A81282F30E03E
:101450003C832B838B819C8181309105D1F02B8142
:101460003C81223031052CF48B819C81009761F006
:101470001EC02B813C812230310581F08B819C8103
:101480008330910581F013C0E9E3F0E08081898326
:101490000EC0E6E3F0E08081898309C0E3E3F0E079
:1014A0008081898304C0E0E3F0E0808189838981C1
:1014B0000F900F900F900F90CF91DF9108951F9292
:1014C0000F920FB60F9211242F933F934F935F9378
:1014D0006F937F938F939F93AF93BF93EF93FF93FC
:1014E000DF93CF93CDB7DEB780918A0190918B01C6
:1014F000009729F0E0918A01F0918B010995CF9135
:10150000DF91FF91EF91BF91AF919F918F917F916B
:101510006F915F914F913F912F910F900FBE0F9060
:101520001F9018951F920F920FB60F9211242F93B0
:101530003F934F935F936F937F938F939F93AF935B
:10154000BF93EF93FF93DF93CF93CDB7DEB7809137
:101550008A0190918B01009729F0E0918A01F09126
:101560008B010995CF91DF91FF91EF91BF91AF91E1
:101570009F918F917F916F915F914F913F912F91AB
:101580000F900FBE0F901F9018951F920F920FB6DD
:101590000F9211242F933F934F935F936F937F93F9
:1015A0008F939F93AF93BF93EF93FF93DF93CF936B
:1015B000CDB7DEB780918C0190918D01009729F015
:1015C000E0918C01F0918D010995CF91DF91FF9110
:1015D000EF91BF91AF919F918F917F916F915F91AB
:1015E0004F913F912F910F900FBE0F901F90189524
:1015F0001F920F920FB60F9211242F933F934F9388
:101600005F936F937F938F939F93AF93BF93EF936A
:10161000FF93DF93CF93CDB7DEB780918C0190918C
:101620008D01009729F0E0918C01F0918D010995D1
:10163000CF91DF91FF91EF91BF91AF919F918F91EA
:101640007F916F915F914F913F912F910F900FBEBE
:101650000F901F9018951F920F920FB60F921124A2
:101660002F933F934F935F936F937F938F939F93AA
:10167000AF93BF93EF93FF93DF93CF93CDB7DEB7D5
:1016800080918E0190918F01009729F0E0918E0159
:10169000F0918F010995CF91DF91FF91EF91BF916B
:1016A000AF919F918F917F916F915F914F913F91FA
:1016B0002F910F900FBE0F901F9018951F920F92B1
:1016C0000FB60F9211242F933F934F935F936F9315
:1016D0007F938F939F93AF93BF93EF93FF93DF938A
:1016E000CF93CDB7DEB780918E0190918F01009797
:1016F00029F0E0918E01F0918F010995CF91DF9152
:10170000FF91EF91BF91AF919F918F917F916F91D9
:101710005F914F913F912F910F900FBE0F901F90AF
:101720001895DF93CF9300D0CDB7DEB79A83898326
:10173000A3E5B0E0E3E5F0E08081282F2F77E98191
:10174000FA818181882F90E09695982F8827979528
:101750008795822B8C93A3E5B0E0E3E5F0E08081F0
:10176000282F2F7BE981FA818281882F90E096953E
:10177000982F88279795879595958795822B8C9399
:10178000A3E5B0E0E3E5F0E08081282F277FE98141
:10179000FA8182818695882F90E0880F991F880FA3
:1017A000991F880F991F822B8C93A3E5B0E0E3E586
:1017B000F0E08081282F2F7CE981FA818381882FB6
:1017C00090E082959295907F9827807F9827822B32
:1017D0008C93A3E5B0E0E3E5F0E08081982F987F5B
:1017E000E981FA818081892B8C93A2E5B0E0E981BF
:1017F000FA8186818C93ACE5B0E0E981FA8187813A
:101800008C93A9E5B0E0E9E5F0E08081282F2D7FF9
:10181000E981FA818481882F90E0880F991F822BBB
:101820008C93A9E5B0E0E9E5F0E08081982F9E7FF8
:10183000E981FA818581892B8C930F900F90CF914C
:10184000DF910895DF93CF93CDB7DEB7E3E5F0E006
:101850001082A9E5B0E0E9E5F0E080818C7F8C930F
:10186000CF91DF910895DF93CF9300D0CDB7DEB74E
:101870009A83898389819A8190938B0180938A01CD
:101880000F900F90CF91DF910895DF93CF9300D009
:10189000CDB7DEB79A838983E2E5F0E0108281E07C
:1018A00063E041E00E942107E3E5F0E088E6808301
:1018B000A3E5B0E0E3E5F0E09081E981FA81808181
:1018C000892B8C930F900F90CF91DF910895DF9328
:1018D000CF9300D0CDB7DEB79A838983E2E5F0E0FD
:1018E0001082ACE5B0E0E981FA8180818C930F90A1
:1018F0000F90CF91DF910895DF93CF9300D0CDB7B4
:10190000DEB79A838983AFE4B0E0EFE4F0E0808152
:10191000282F2F73E981FA818081882F90E000249D
:10192000969587950794969587950794982F802D7F
:10193000822B8C93AFE4B0E0EFE4F0E08081282FBD
:101940002F7CE981FA818181882F90E082959295A0
:10195000907F9827807F9827822B8C93AFE4B0E00C
:10196000EFE4F0E08081282F277FE981FA818281EE
:10197000882F90E0880F991F880F991F880F991F53
:10198000822B8C93AFE4B0E0EFE4F0E08081282F6D
:101990002B7FE981FA818381882F90E0880F991F3E
:1019A000880F991F822B8C93AFE4B0E0EFE4F0E056
:1019B0008081282F2C7FE981FA818781882F90E010
:1019C0000024969587950794969587950794982F68
:1019D000802D082E892F000C881F990B000C881F62
:1019E000991F822B8C93AEE4B0E0EEE4F0E08081AE
:1019F000282F277EE981FA81878186958695882F11
:101A000090E0880F991F880F991F880F991F822BCC
:101A10008C93AEE4B0E0EEE4F0E08081282F2F77E5
:101A2000E981FA818581882F90E09695982F882703
:101A300097958795822B8C93AEE4B0E0EEE4F0E0CE
:101A40008081282F2F7BE981FA818481882F90E083
:101A50000024969587950794969587950794982FD7
:101A6000802D822B8C93AEE4B0E0EEE4F0E0808138
:101A7000982F987FE981FA818681892B8C93A9E53B
:101A8000B0E0E9E5F0E08081282F2F7EE981FA813E
:101A90008085882F90E082959295907F9827807F0F
:101AA0009827822B8C93A9E5B0E0E9E5F0E08081EE
:101AB000282F277FE981FA818185882F90E0880F80
:101AC000991F880F991F880F991F822B8C93A9E566
:101AD000B0E0E9E5F0E08081282F2B7FE981FA81F1
:101AE0008285882F90E0880F991F880F991F822B7D
:101AF0008C93ACE4B0E0E981FA81838594851196FA
:101B00009C938E93AAE4B0E0E981FA81858596855D
:101B100011969C938E93A8E4B0E0E981FA818785C1
:101B2000908911969C938E930F900F90CF91DF9197
:101B30000895DF93CF9300D0CDB7DEB79A83898322
:101B400089819A8190938D0180938C010F900F90E1
:101B5000CF91DF910895DF93CF93CDB7DEB7EFE458
:101B6000F0E01082EEE4F0E01082A9E5B0E0E9E5F3
:101B7000F0E08081837C8C93CF91DF910895DF9397
:101B8000CF9300D0CDB7DEB79A838983A5E4B0E0C8
:101B9000E5E4F0E08081282F2F77E981FA818181C7
:101BA000882F90E09695982F882797958795822B78
:101BB0008C93A5E4B0E0E5E4F0E08081282F2F7B52
:101BC000E981FA818281882F90E09695982F882765
:101BD0009795879595958795822B8C93A5E4B0E092
:101BE000E5E4F0E08081282F277FE981FA81828176
:101BF0008695882F90E0880F991F880F991F880F6E
:101C0000991F822B8C93A5E4B0E0E5E4F0E080819D
:101C1000282F2F7CE981FA818381882F90E082959B
:101C20009295907F9827807F9827822B8C93A5E4AC
:101C3000B0E0E5E4F0E08081982F987FE981FA81B7
:101C40008081892B8C93A2E5B0E0E981FA818681BD
:101C50008C93A3E4B0E0E981FA8187818C93A9E5B4
:101C6000B0E0E9E5F0E08081282F2F77E981FA8163
:101C70008481882F90E09695982F8827979587954F
:101C8000822B8C93A9E5B0E0E9E5F0E08081982F04
:101C90009F7BE981FA818581892B8C930F900F902E
:101CA000CF91DF910895DF93CF9300D0CDB7DEB70A
:101CB0009A838983E4E4F0E0108283E067E041E006
:101CC0000E942107E5E4F0E088E68083A5E4B0E027
:101CD000E5E4F0E09081E981FA818081892B8C93A1
:101CE0000F900F90CF91DF910895DF93CF9300D0A5
:101CF000CDB7DEB79A838983E4E4F0E01082A3E4F1
:101D0000B0E0E981FA8180818C930F900F90CF91A0
:101D1000DF910895DF93CF93CDB7DEB7E5E4F0E030
:101D20001082A9E5B0E0E9E5F0E080818F738C9343
:101D3000CF91DF910895DF93CF9300D0CDB7DEB779
:101D40009A83898389819A8190938F0180938E01F0
:101D50000F900F90CF91DF910895EF92FF920F9324
:101D60001F93DF93CF9300D000D0CDB7DEB79C8315
:101D70008B831A821982ABE2B0E0EBE2F0E0808163
:101D8000282F2D7FEB81FC818081882F90E0880FA8
:101D9000991F822B8C93AAE2B0E0EAE2F0E0808106
:101DA000282F2F77EB81FC818181882F90E09695F9
:101DB000982F882797958795822B8C93AAE2B0E07D
:101DC000EAE2F0E08081282F2F77EB81FC8182818D
:101DD000882F90E00024969587950794969587958F
:101DE0000794982F802D822B8C93AAE2B0E0EAE230
:101DF000F0E08081282F2F7DEB81FC818381882F6B
:101E000090E0880F991F82959295907F9827807F08
:101E10009827822B8C93AAE2B0E0EAE2F0E080817E
:101E2000282F2F7EEB81FC818481882F90E0829582
:101E30009295907F9827807F9827822B8C93AAE297
:101E4000B0E0EAE2F0E08081282F277FEB81FC817F
:101E50008581882F90E0880F991F880F991F880F20
:101E6000991F822B8C93AAE2B0E0EAE2F0E0808135
:101E7000282F2B7FEB81FC81868186958695882F84
:101E800090E0880F991F880F991F822B8C93A0E4F4
:101E9000B0E0E0E4F0E08081282F297FEB81FC8135
:101EA0008681882F90E000249695879507949695D3
:101EB00087950794982F802D95958795959587956B
:101EC000959587959595879595958795822B8C9374
:101ED000A0E4B0E0E0E4F0E08081282F2F77EB81F0
:101EE000FC818781882F90E09695982F8827979579
:101EF0008795822B8C93A0E4B0E0E0E4F0E0808151
:101F0000282F2F7BEB81FC818085882F90E0002497
:101F1000969587950794969587950794982F802D89
:101F2000822B8C93A0E4B0E0E0E4F0E08081282FE5
:101F30002F7CEB81FC818185882F90E082959295A2
:101F4000907F9827807F9827822B8C93A0E4B0E025
:101F5000E0E4F0E08081282F277FEB81FC818285FF
:101F6000882F90E0880F991F880F991F880F991F5D
:101F7000822B8C93A0E4B0E0E0E4F0E08081982F25
:101F80009E7FEB81FC818385892B8C93EB81FC8187
:101F90008081882F90E00196AA2797FDA095BA2FFF
:101FA00020E032E14AE750E0BC01CD010E9413136A
:101FB0007B018C01EB81FC8184859585A685B785A5
:101FC000880F991FAA1FBB1F880F991FAA1FBB1F2D
:101FD000880F991FAA1FBB1F880F991FAA1FBB1F1D
:101FE0009C01AD01C801B7010E943213DA01C90199
:101FF00001979A838983E0E4F0E089819A81892FAF
:1020000099278083E9E2F0E0898180830F900F9027
:102010000F900F90CF91DF911F910F91FF90EF9054
:102020000895DF93CF930F92CDB7DEB78983EBE2AC
:10203000F0E08081882F90E0807290700097B9F373
:10204000ECE2F0E0898180830F90CF91DF910895D9
:10205000DF93CF93CDB7DEB7EBE2F0E0808188234A
:10206000DCF7ECE2F0E08081CF91DF910895DF931F
:10207000CF9300D00F92CDB7DEB79B838A831982AE
:102080000EC08981282F30E08A819B81FC01E20FFC
:10209000F31F80810E94111089818F5F898389815C
:1020A000282F30E08A819B81FC01E20FF31F8081A1
:1020B000882339F70F900F900F90CF91DF910895FB
:1020C0000F931F93DF93CF9300D00F92CDB7DEB75E
:1020D0009B838A8319828981282F30E08A819B81A2
:1020E0008C01020F131F0E942810F80180830FC07B
:1020F00089818F5F89838981282F30E08A819B8144
:102100008C01020F131F0E942810F801808389811F
:10211000282F30E08A819B81FC01E20FF31F808130
:102120008D3331F78981282F30E08A819B81FC0132
:10213000E20FF31F10820F900F900F90CF91DF915D
:102140001F910F910895DF93CF93CDB7DEB781E054
:1021500060E041E00E94210781E061E041E00E94EF
:10216000210781E063E041E00E942107CF91DF91E8
:102170000895DF93CF9300D0CDB7DEB789836A830C
:102180008981882359F481E060E041E00E940C08D5
:1021900081E061E040E00E940C080DC0898181303F
:1021A00051F481E061E041E00E940C0881E060E0D0
:1021B00040E00E940C08CE0102960E94670C0F902E
:1021C0000F90CF91DF910895DF93CF930F92CDB70A
:1021D000DEB71982CE0101960E94670C0F90CF9155
:1021E000DF910895DF93CF9300D00F92CDB7DEB784
:1021F0008B831A8219828B818B35A8F48B818A3567
:1022000049F48EEF90E09A838983CE0101960E9473
:10221000750E09C08B81882331F41A821982CE0190
:1022200001960E94750E0F900F900F90CF91DF9145
:102230000895DF93CF93CDB7DEB783E066E041E04A
:102240000E94210783E066E040E00E940C08CF91E5
:10225000DF910895DF93CF93CDB7DEB783E066E0DB
:1022600041E00E940C08CF91DF910895DF93CF9356
:10227000CDB7DEB783E066E040E00E940C08CF9166
:10228000DF910895DF93CF9300D0CDB7DEB71A82E8
:10229000198280E00E94ED069A83898389819A8160
:1022A0000F900F90CF91DF910895DF93CF93CDB72B
:1022B000DEB783E063E041E00E94210783E064E051
:1022C00041E00E94210783E065E041E00E94210790
:1022D00083E063E040E00E940C0883E064E040E0BB
:1022E0000E940C0883E065E040E00E940C08CF915A
:1022F000DF910895DF93CF930F92CDB7DEB7898337
:102300008981882381F483E063E041E00E940C0826
:1023100083E064E040E00E940C0883E065E040E078
:102320000E940C0822C08981813081F483E063E03F
:1023300040E00E940C0883E064E041E00E940C0849
:1023400083E065E040E00E940C080FC083E063E09A
:1023500040E00E940C0883E064E040E00E940C082A
:1023600083E065E041E00E940C080F90CF91DF917F
:102370000895DF93CF93CDB7DEB7A7970FB6F89444
:10238000DEBF0FBECDBF81E0898387E08A83CE01A7
:1023900001960E94B706CE0103969CA38BA3EAE7A1
:1023A000F1E0FEA3EDA3F0E1FFA3EDA1FEA100800B
:1023B0008DA19EA101969EA38DA3EBA1FCA10082FD
:1023C0008BA19CA101969CA38BA39FA191509FA33D
:1023D000EFA1EE2351F7CE0103960E94AD0E83E0EC
:1023E0008B8BCE0143960E94450C84E08B8FCE01EF
:1023F0004B960E94530E89E392E10E94990D0E9430
:10240000A3100E9419110E945511AFE5B0E0EFE54D
:10241000F0E0808180688C93A7960FB6F894DEBFB9
:102420000FBECDBFCF91DF910895DF93CF93CDB78E
:10243000DEB70E94B9110E94EC12809191018823AD
:1024400019F40E944512F7CF80919101813019F45F
:102450000E94B212F0CF80919101823019F40E9453
:10246000C112E9CF80919101833029F70E94DE12D9
:10247000E2CFDF93CF93CDB7DEB7809190018F5F2E
:1024800080939001CF91DF910895DF93CF9300D097
:102490000F92CDB7DEB71B821A82198280E10E94AB
:1024A00011100E9428108B830E94361180E00E9438
:1024B000F2108B81873439F08B81893521F08B8143
:1024C000823509F049C08B81873439F480E00E945D
:1024D0007A1181E0809368010DC08B81893539F4D0
:1024E00081E00E947A1181E08093680103C082E05C
:1024F0000E947A1180916801882371F10E94421133
:102500009A83898389819A81CC01A0E0B0E0BC01E3
:10251000CD010E944904DC01CB01BC01CD0120E0CA
:1025200030EC4FE754E40E941903DC01CB01BC01FD
:10253000CD0120E030E04FE753E40E941F02DC01B0
:10254000CB01BC01CD010E944900DC01CB01982FD9
:1025500080E0692F0E94B9100F900F900F90CF91DB
:10256000DF910895DF93CF93CDB7DEB782E00E946D
:102570007A110E942A1180E00E94F210CF91DF911F
:102580000895DF93CF93CDB7DEB782E00E947A1132
:102590000E942A110E94E4108AE50E94F21089E646
:1025A00091E00E947C0C809190018530E1F70E94BF
:1025B000AB0D10929001CF91DF910895DF93CF93EF
:1025C000CDB7DEB70E94E41082E00E947A1110922B
:1025D0006801CF91DF910895DF93CF930F92CDB72C
:1025E000DEB7198280E10E9411100E9428108983B1
:1025F0008981813421F482E08093910110C0898126
:10260000853421F481E08093910109C0898183356B
:1026100021F483E08093910102C0109291010F9008
:10262000CF91DF910895629FD001739FF001829F47
:10263000E00DF11D649FE00DF11D929FF00D839F51
:10264000F00D749FF00D659FF00D9927729FB00DEE
:10265000E11DF91F639FB00DE11DF91FBD01CF0101
:1026600011240895A1E21A2EAA1BBB1BFD010DC067
:10267000AA1FBB1FEE1FFF1FA217B307E407F50732
:1026800020F0A21BB30BE40BF50B661F771F881F0E
:10269000991F1A9469F760957095809590959B01A4
:1026A000AC01BD01CF0108952F923F924F925F92EE
:1026B0006F927F928F929F92AF92BF92CF92DF9252
:1026C000EF92FF920F931F93CF93DF93CDB7DEB7B7
:1026D000CA1BDB0B0FB6F894DEBF0FBECDBF09944B
:1026E0002A88398848885F846E847D848C849B84A2
:1026F000AA84B984C884DF80EE80FD800C811B81B0
:10270000AA81B981CE0FD11D0FB6F894DEBF0FBEDE
:0A271000CDBFED010895F894FFCF4E
:10271A00000000000000000000010202030303039E
:10272A000404040404040404050505050505050557
:10273A000505050505050505060606060606060637
:10274A00060606060606060606060606060606061F
:10275A000606060606060606070707070707070707
:10276A0007070707070707070707070707070707EF
:10277A0007070707070707070707070707070707DF
:10278A0007070707070707070707070707070707CF
:10279A0007070707070707070808080808080808B7
:1027AA00080808080808080808080808080808089F
:1027BA00080808080808080808080808080808088F
:1027CA00080808080808080808080808080808087F
:1027DA00080808080808080808080808080808086F
:1027EA00080808080808080808080808080808085F
:1027FA00080808080808080808080808080808084F
:10280A00080808080808080808080808080808083E
:10281A000808080808080808010000010000000567
:10282A0004010000000086180000010000000101F8
:0A283A0003010000000080250000EB
:00000001FF
